:100000000C942A000C9447000C9447000C94470071
:100010000C9447000C9447000C9447000C94470044
:100020000C9447000C9447000C9447000C94470034
:100030000C9447000C9447000C9447000C94470024
:100040000C9447000C9447000C9447000C94470014
:100050000C94470011241FBECFE5D8E0DEBFCDBF12
:1000600011E0A0E6B0E0E6E4FCE002C005900D92ED
:10007000AC36B107D9F712E0ACE6B1E001C01D9291
:10008000A734B107E1F70E9405040C9421060C94F3
:10009000000081B3807F81BBC19AC09881E08A95BE
:1000A000F1F721E032E0C29A822F8A95F1F780B30E
:1000B0008295807F922F9A95F1F7C298932F9A9507
:1000C000F1F7C29A922F9A95F1F790B3922F9A95E1
:1000D000F1F7C298932F9A95F1F787FDE4CFC19875
:1000E00081B38F6081BB0895282F662311F4C098D7
:1000F00001C0C09A81E08A95F1F7C29A82B3922F2B
:1001000092959F70807F982B92BB92E0892F8A9561
:10011000F1F7C298892F8A95F1F7C29A82B32F70AE
:10012000807F822B82BB892F8A95F1F7C2989A959E
:10013000F1F70E9449000895CF93DF93EC0110C0BE
:10014000853251F4219688818053883028F085E2E9
:1001500061E00E947400888161E00E947400219631
:100160008881882369F7DF91CF910895EF92FF92FC
:100170000F931F93DF93CF9300D000D00F92CDB792
:10018000DEB79C018B01FE01319685E0DF011D92F7
:100190008A95E9F7FE0135960DC0C9016AE070E065
:1001A0000E94F1048083C9016AE070E00E94F104BA
:1001B0009B0131972115310581F7BFEF0F3F1B07D9
:1001C00079F420E030E0AE014F5F5F4F02C02F5F57
:1001D0003F4FFA01E20FF31F80818823C1F304C06F
:1001E00025E030E0201B310B7E010894E11CF11C5E
:1001F000E20EF31E890109C0F70181917F01805D44
:1002000061E00E9474000F5F1F4F05301105A4F3D9
:100210000F900F900F900F900F90CF91DF911F9143
:100220000F91FF90EF900895843178F4623031F0AF
:10023000633031F0613029F4806403C08C5E01C00A
:100240008C5A806860E00E94740008951F93CF93D9
:10025000DF93182F80E69AEE0197F1F781B38F6054
:1002600081BBBA9AB89AB99A82B3807F82BBC2988E
:10027000C198C09881E08A95F1F7C29A919A82E07C
:10028000982F9A95F1F7C2988A95F1F70E94490044
:10029000812F8C6060E00E94740088E260E00E9420
:1002A000740080E460E00E947400CFE2D1E08991A4
:1002B00061E00E94740081E0C736D807C1F780E092
:1002C00090E060E070E00E941401DF91CF911F91F7
:1002D00008959FEF9ABB94BB81B38F7081BB97BB8E
:1002E00010924202109241021092D5010895382FC7
:1002F0008FEF85BB8091D401E7EDF1E0ACE6B1E092
:10030000482F50E04E0F5F1F61E070E010C0808109
:10031000831759F425B3CB010C9002C0880F991FA5
:100320000A94E2F78095822385BB31961196E417F3
:10033000F50769F70895813021F480E0623079F49F
:1003400014C0823021F480E0613049F40EC0833063
:1003500021F480E0643019F408C0843011F081E0A9
:10036000089580E0633009F081E00895782F30919E
:10037000D40115C0832F90E0DC011197AC014952E4
:100380005E4FFD01E952FE4F2081FA01208384591E
:100390009E4FA459BE4F2C91FC0120833150332332
:1003A00049F77093D70160936C010895841759F44D
:1003B00025B381E090E002C0880F991F6A95E2F7AB
:1003C0008095822385BB0895982F8091D701913025
:1003D00031F4882311F48CE008958150089592300F
:1003E00029F48C3011F480E008958F5F0895982FE0
:1003F00080916C01933031F4873011F480E00895DE
:100400008F5F0895943029F4882311F487E00895CC
:100410008150089590913F02891711F090E007C034
:1004200090E080914402681391E081E09827892F41
:100430000895782F3091D4013F5F3093D40115C0D7
:10044000832F90E0DC011197AC0149525E4FFD0112
:10045000E952FE4F2081FA01208384599E4FA4590E
:10046000BE4F2C91FC0120833150332349F7709308
:10047000D70160936C010895982F8091D40188234F
:1004800061F08091D701891749F490E080916C0167
:10049000861391E081E0982702C0089590E0892FAB
:1004A000089580E00E94260181E060E00E947400CF
:1004B00081E060E00E94140180E690E00E949C00D0
:1004C00081E061E00E9414018BE690E00E949C00B4
:1004D00088E893E128EC30E0F9013197F1F70197D2
:1004E000D9F781E060E00E94740081E060E00E9442
:1004F000140186E790E00E949C0081E061E00E9488
:10050000140183E890E00E949C0088E893E128ECC5
:1005100030E0F9013197F1F70197D9F781E060E018
:100520000E94740081E060E00E9414018EE890E077
:100530000E949C0081E061E00E9414018EE990E03D
:100540000E949C0088E893E128EC30E0F9013197A3
:10055000F1F70197D9F781E060E00E94740081E033
:1005600060E00E9414018CEA90E00E949C0081E00F
:1005700061E00E9414018BEB90E00E949C0088E8EF
:1005800093E128EC30E0F9013197F1F70197D9F7C1
:10059000089581E060E00E94740081E060E00E94C4
:1005A000140186EC90E00E949C0081E061E00E94D2
:1005B000140182ED90E00E949C0080EA9FE028EC0C
:1005C00030E0F9013197F1F70197D9F781E060E068
:1005D0000E94740081E060E00E9414018DED90E0C3
:1005E0000E949C0081E061E00E94140187EE90E08F
:1005F0000E949C00849B02C086E203C0859BFACFC8
:100600008AEF8093450288EE93E028EC30E0F90110
:100610003197F1F70197D9F7089581E060E00E94E2
:10062000740081E060E00E94140183EF90E00E947A
:100630009C0081E061E00E94140181E091E00E9451
:100640009C0020B380B340B360B390E080729070A0
:1006500030E020713070822B932B50E0407450704A
:10066000842B952B70E060787070862B972B892BEC
:1006700041F3089581E060E00E94740081E060E051
:100680000E9414018DE091E00E949C0088E893E1B3
:1006900028EC30E0F9013197F1F70197D9F781E0C3
:1006A00061E00E94140187E191E00E949C008DE0CE
:1006B00061E00E941401809141029091420262E047
:1006C00070E00E94B60008950F931F938C0181E0A3
:1006D00060E00E94740081E060E00E94140183E207
:1006E00091E00E949C008DE060E00E9414018EE287
:1006F00090E00E94790590E062E070E00E94B60010
:1007000081E061E00E94140181E061E00E94140137
:1007100087E191E00E949C008DE061E00E9414015D
:10072000C80162E070E00E94B6001F910F91089529
:10073000CF93DF93EC018EE290E00E94790590E088
:100740008C179D0728F48EE290E06C2F0E948105A3
:10075000DF91CF9108950E9469056DE070E00E94DD
:10076000F10480933F020E94690568E070E00E94F6
:10077000F104982F809344025091D40140913F029C
:1007800020E030E00EC0F901E952FE4F80814817A9
:1007900031F4F901E459FE4F80819817E1F22F5F9F
:1007A0003F4F251780F308950E94C9020E940D0350
:1007B0008091D401E7EDF1E0ACE6B1E090E08E0F7E
:1007C0009F1F02C011921D92E817F907D9F783E025
:1007D0008093D40194E09093D70185E08093D80171
:1007E00086E08093D90190936C0190936D01909372
:1007F0006E010E94AB0382E080934002809141022F
:10080000909142020E9464030895CF92DF92EF928A
:10081000FF920F931F93CF93DF930E9469010E9471
:1008200051020E94D403C1E0D0E088ECC82ED12C44
:10083000849B0AC08091400261E00E949B01882352
:1008400019F081E080934002859B0AC080914002AC
:1008500062E00E949B01882319F082E080934002AD
:10086000869B0AC08091400263E00E949B0188231E
:1008700019F083E080934002879B0AC08091400278
:1008800064E00E949B01882319F084E08093400279
:100890009091D50180914502891708F059C01091B7
:1008A0004002812F0E94E401082F80934302812F90
:1008B0000E94F701982F8093460280913F0208170B
:1008C000E9F4809144029817C9F40E94AB03809127
:1008D0004302609146020E94B601809143026091FA
:1008E00046020E94190280914102909142020196B3
:1008F00090934202809341020E94640390914302CC
:10090000609146028091D401882359F08091D701EB
:100910008917C1F480916C018617A1F4EE24E39449
:1009200002C0EE2081F00E943A0380914102909132
:1009300042020E94980310924202109241020E94C9
:10094000D40304C0EE24892F0E94B6011092D50171
:1009500000E010E0F02E1BBA18BA47E0401758F03C
:100960002BB3CE01002E02C0880F991F0A94E2F724
:10097000282B2BBB0EC028B305501040CE01002EF3
:1009800002C0880F991F0A94E2F70B5F1F4F282BB4
:1009900028BB802F0E9477013091D50180914502BC
:1009A0008695831788F49091440280913F028F15B9
:1009B00059F425B3AE0102C0440F551F9A95E2F7D2
:1009C000CA018095822385BB3F5F3093D501C60164
:1009D0000197F1F70F5F1F4F0D30110509F0BACFE6
:1009E00027CF97FB092E07260AD077FD04D00CD01D
:1009F00006D000201AF4709561957F4F0895F6F7A0
:100A0000909581959F4F0895AA1BBB1B51E107C08C
:100A1000AA1FBB1FA617B70710F0A61BB70B881F8E
:100A2000991F5A95A9F780959095BC01CD0108951D
:100A3000A0E0B0E0EEE1F5E00C94D005EC01A88078
:100A4000B980CA80DB80A114B104C104D10441F48F
:100A500084E2A82E89EDB82E8BE5C82E87E0D82E2B
:100A6000C601B5012DE133EF41E050E00E94AD0534
:100A700027EA31E440E050E00E948E057B018C01C2
:100A8000C601B5012DE133EF41E050E00E94AD0514
:100A9000CA01B9012CEE34EF4FEF5FEF0E948E05D3
:100AA0006E0D7F1D801F911F97FF04C06150704025
:100AB00080409048688379838A839B839B013F773A
:100AC000C901CDB7DEB7EAE00C94EC050E94180529
:100AD000089587E691E00E9418050895A0E0B0E02F
:100AE0008093670190936801A0936901B0936A01B4
:100AF0000895E199FECF9FBB8EBBE09A99278DB3F5
:100B00000895262FE199FECF9FBB8EBB2DBB0FB65C
:100B1000F894E29AE19A0FBE01960895629FD0017F
:100B2000739FF001829FE00DF11D649FE00DF11DA8
:100B3000929FF00D839FF00D749FF00D659FF00D57
:100B40009927729FB00DE11DF91F639FB00DE11D44
:100B5000F91FBD01CF011124089597FB092E052629
:100B60000ED057FD04D04BD00AD0001C38F450955D
:100B70004095309521953F4F4F4F5F4F0895F6F7C1
:100B800090958095709561957F4F8F4F9F4F0895F9
:100B90002F923F924F925F926F927F928F929F928D
:100BA000AF92BF92CF92DF92EF92FF920F931F937B
:100BB000CF93DF93CDB7DEB7CA1BDB0B0FB6F8942C
:100BC000DEBF0FBECDBF09942A88398848885F846C
:100BD0006E847D848C849B84AA84B984C884DF80DD
:100BE000EE80FD800C811B81AA81B981CE0FD11DC1
:100BF0000FB6F894DEBF0FBECDBFED010895A1E2A0
:100C00001A2EAA1BBB1BFD010DC0AA1FBB1FEE1F86
:100C1000FF1FA217B307E407F50720F0A21BB30BD1
:100C2000E40BF50B661F771F881F991F1A9469F74D
:100C300060957095809590959B01AC01BD01CF01A9
:060C40000895F894FFCFB7
:100C460057656C636F6D6520746F00536E616B65DD
:100C56002067616D6500557365204B657973207457
:100C66006F20006D6F766520536E616B6500486975
:100C76007420746865207461726765747300746F9C
:100C86002067657420506F696E747300446F206E20
:100C96006F74206869742074686500536E616B65B3
:100CA60020426F64790043686F6F736520746865CE
:100CB6002000646966666963756C74790055502016
:100CC6003D204561737900446F776E203D20486171
:100CD600726400507265737320616E79206B65795A
:100CE60000746F20436F6E74696E75650047616DA1
:100CF60065204F76657200596F75722053636F7267
:100D0600653D00486967682053636F72653D000C56
:100D160012120C000000000004021F020400000A68
:100D260015110A040000000305090B0B1818001F13
:100D36000E0E040404040401010505151515000E24
:0C0D460011111F1F1F1F00010000000002
:00000001FF
